{
  "contractName": "ProxyFactory",
  "abi": [
    {
      "anonymous": false,
      "inputs": [
        {
          "indexed": false,
          "name": "proxyAddress",
          "type": "address"
        },
        {
          "indexed": false,
          "name": "targetAddress",
          "type": "address"
        }
      ],
      "name": "ProxyDeployed",
      "type": "event"
    },
    {
      "anonymous": false,
      "inputs": [
        {
          "indexed": false,
          "name": "proxyAddresses",
          "type": "address[]"
        },
        {
          "indexed": false,
          "name": "targetAddress",
          "type": "address"
        }
      ],
      "name": "ProxiesDeployed",
      "type": "event"
    },
    {
      "constant": false,
      "inputs": [
        {
          "name": "_count",
          "type": "uint256"
        },
        {
          "name": "_target",
          "type": "address"
        },
        {
          "name": "_data",
          "type": "bytes"
        }
      ],
      "name": "createManyProxies",
      "outputs": [],
      "payable": false,
      "stateMutability": "nonpayable",
      "type": "function"
    },
    {
      "constant": false,
      "inputs": [
        {
          "name": "_target",
          "type": "address"
        },
        {
          "name": "_data",
          "type": "bytes"
        }
      ],
      "name": "createProxy",
      "outputs": [
        {
          "name": "proxyContract",
          "type": "address"
        }
      ],
      "payable": false,
      "stateMutability": "nonpayable",
      "type": "function"
    }
  ],
  "bytecode": "0x608060405234801561001057600080fd5b50610467806100206000396000f30060806040526004361061004c576000357c0100000000000000000000000000000000000000000000000000000000900463ffffffff16806361b69abd146100515780637b8b82a81461011a575b600080fd5b34801561005d57600080fd5b506100d8600480360381019080803573ffffffffffffffffffffffffffffffffffffffff169060200190929190803590602001908201803590602001908080601f01602080910402602001604051908101604052809392919081815260200183838082843782019150505050505091929192905050506101ad565b604051808273ffffffffffffffffffffffffffffffffffffffff1673ffffffffffffffffffffffffffffffffffffffff16815260200191505060405180910390f35b34801561012657600080fd5b506101ab60048036038101908080359060200190929190803573ffffffffffffffffffffffffffffffffffffffff169060200190929190803590602001908201803590602001908080601f0160208091040260200160405190810160405280939291908181526020018383808284378201915050505050509192919290505050610258565b005b60006101b983836103ad565b90507f3d2489efb661e8b1c3679865db649ca1de61d76a71184a1234de2e55786a6aad8184604051808373ffffffffffffffffffffffffffffffffffffffff1673ffffffffffffffffffffffffffffffffffffffff1681526020018273ffffffffffffffffffffffffffffffffffffffff1673ffffffffffffffffffffffffffffffffffffffff1681526020019250505060405180910390a192915050565b606060008460405190808252806020026020018201604052801561028b5781602001602082028038833980820191505090505b509150600090505b848110156102fa576102a584846103ad565b82828151811015156102b357fe5b9060200190602002019073ffffffffffffffffffffffffffffffffffffffff16908173ffffffffffffffffffffffffffffffffffffffff1681525050806001019050610293565b7fb2985f082ae86fc659eabac0809f572d48e4fab9171c7dc2848b56d7bf3f1072828560405180806020018373ffffffffffffffffffffffffffffffffffffffff1673ffffffffffffffffffffffffffffffffffffffff168152602001828103825284818151815260200191508051906020019060200280838360005b83811015610392578082015181840152602081019050610377565b50505050905001935050505060405180910390a15050505050565b600060405183600b82015276603160008181600b9039f360008080808036809280377360098203527f5af43d828181803e808314602f57f35bfd000000000000000000000000000000602b820152603c816000f09150813b151561041057600080fd5b8251801515156104335760008082602087016000875af1151561043257600080fd5b5b5050929150505600a165627a7a72305820f9f8e715e0d1166728ee9c93fea5f6af86ae41569cb3c0889fcb7fba901fba300029",
  "source": "/***\n* Shoutouts:\n*\n* Bytecode origin https://www.reddit.com/r/ethereum/comments/6ic49q/any_assembly_programmers_willing_to_write_a/dj5ceuw/\n* Modified version of Vitalik's https://www.reddit.com/r/ethereum/comments/6c1jui/delegatecall_forwarders_how_to_save_5098_on/\n* Credits to Jorge Izquierdo (@izqui) for coming up with this design here: https://gist.github.com/izqui/7f904443e6d19c1ab52ec7f5ad46b3a8\n* Credits to Stefan George (@Georgi87) for inspiration for many of the improvements from Gnosis Safe: https://github.com/gnosis/gnosis-safe-contracts\n*\n* This version has many improvements over the original @izqui's library like using REVERT instead of THROWing on failed calls.\n* It also implements the awesome design pattern for initializing code as seen in Gnosis Safe Factory: https://github.com/gnosis/gnosis-safe-contracts/blob/master/contracts/ProxyFactory.sol\n* but unlike this last one it doesn't require that you waste storage on both the proxy and the proxied contracts (v. https://github.com/gnosis/gnosis-safe-contracts/blob/master/contracts/Proxy.sol#L8 & https://github.com/gnosis/gnosis-safe-contracts/blob/master/contracts/GnosisSafe.sol#L14)\n*\n*\n* v0.0.2\n* The proxy is now only 60 bytes long in total. Constructor included.\n* No functionalities were added. The change was just to make the proxy leaner.\n*\n* v0.0.3\n* Thanks @dacarley for noticing the incorrect check for the subsequent call to the proxy. 🙌\n* Note: I'm creating a new version of this that doesn't need that one call.\n*       Will add tests and put this in its own repository soon™.\n*\n* v0.0.4\n* All the merit in this fix + update of the factory is @dacarley 's. 🙌\n* Thank you! 😄\n*\n* Potential updates can be found at https://gist.github.com/GNSPS/ba7b88565c947cfd781d44cf469c2ddb\n*\n***/\n\npragma solidity ^0.4.19;\n\n/* solhint-disable no-inline-assembly, indent, state-visibility, avoid-low-level-calls */\n\ncontract ProxyFactory {\n    event ProxyDeployed(address proxyAddress, address targetAddress);\n    event ProxiesDeployed(address[] proxyAddresses, address targetAddress);\n\n    function createManyProxies(uint256 _count, address _target, bytes _data)\n        public\n    {\n        address[] memory proxyAddresses = new address[](_count);\n\n        for (uint256 i = 0; i < _count; ++i) {\n            proxyAddresses[i] = createProxyImpl(_target, _data);\n        }\n\n        ProxiesDeployed(proxyAddresses, _target);\n    }\n\n    function createProxy(address _target, bytes _data)\n        public\n        returns (address proxyContract)\n    {\n        proxyContract = createProxyImpl(_target, _data);\n\n        ProxyDeployed(proxyContract, _target);\n    }\n\n    function createProxyImpl(address _target, bytes _data)\n        internal\n        returns (address proxyContract)\n    {\n        assembly {\n            let contractCode := mload(0x40) // Find empty storage location using \"free memory pointer\"\n\n            mstore(add(contractCode, 0x0b), _target) // Add target address, with a 11 bytes [i.e. 23 - (32 - 20)] offset to later accomodate first part of the bytecode\n            mstore(sub(contractCode, 0x09), 0x000000000000000000603160008181600b9039f3600080808080368092803773) // First part of the bytecode, shifted left by 9 bytes, overwrites left padding of target address\n            mstore(add(contractCode, 0x2b), 0x5af43d828181803e808314602f57f35bfd000000000000000000000000000000) // Final part of bytecode, offset by 43 bytes\n\n            proxyContract := create(0, contractCode, 60) // total length 60 bytes\n            if iszero(extcodesize(proxyContract)) {\n                revert(0, 0)\n            }\n\n            // check if the _data.length > 0 and if it is forward it to the newly created contract\n            let dataLength := mload(_data)\n            if iszero(iszero(dataLength)) {\n                if iszero(call(gas, proxyContract, 0, add(_data, 0x20), dataLength, 0, 0)) {\n                    revert(0, 0)\n                }\n            }\n        }\n    }\n}",
  "sourcePath": "/Users/slavab/local/memeContracts/contracts/proxyFactory.sol",
  "compiler": {
    "name": "solc",
    "version": "0.4.24+commit.e67f0147.Emscripten.clang"
  },
  "schemaVersion": "2.0.0",
  "updatedAt": "2018-07-16T04:39:37.126Z"
}